:100000000A128A11842F00308A000408840A8207A9
:1000100000344C34593443344F34203453344F3447
:06002000463454340034A4
:100F080083010A128A11DD2F06300A128A119B27E3
:100F18000A128A1138300A128A119B270A128A117A
:100F28000C300A128A119B270A128A110800F20053
:100F38008312031307108714720886002130F1000A
:100F48007630F000F00BA62FF10BA62F6400831269
:100F5800031387100800F200831203130714871481
:100F6800720886002130F1007630F000F00BBA2FBD
:100F7800F10BBA2F64008312031387100800F400E2
:100F8800D62F740884000A128A1103200A128A11C3
:100F98000A128A11AF270A128A110130F300730866
:100FA800F407D62FF408031DDA2FDB2FC52FDC2F0B
:100FB8000800831603138601831203138601831620
:100FC800031387018312031387010A128A118827E2
:100FD8000A128A11EF2F80300A128A119B270A12EF
:100FE8008A1101300A128A11C3270A128A11EF2FB7
:080FF800EF2F0A128A110028F4
:02400E003A3F37
:00000001FF
